{
  "contractName": "DropHunter",
  "abi": [
    {
      "inputs": [],
      "stateMutability": "nonpayable",
      "type": "constructor"
    },
    {
      "inputs": [
        {
          "internalType": "uint256",
          "name": "",
          "type": "uint256"
        }
      ],
      "name": "dropOwners",
      "outputs": [
        {
          "internalType": "address",
          "name": "",
          "type": "address"
        }
      ],
      "stateMutability": "view",
      "type": "function"
    },
    {
      "inputs": [
        {
          "internalType": "uint256",
          "name": "",
          "type": "uint256"
        }
      ],
      "name": "drops",
      "outputs": [
        {
          "internalType": "string",
          "name": "name",
          "type": "string"
        },
        {
          "internalType": "string",
          "name": "imageUri",
          "type": "string"
        },
        {
          "internalType": "string",
          "name": "description",
          "type": "string"
        },
        {
          "internalType": "string",
          "name": "socialHandle",
          "type": "string"
        },
        {
          "internalType": "string",
          "name": "websiteUri",
          "type": "string"
        },
        {
          "internalType": "string",
          "name": "price",
          "type": "string"
        },
        {
          "internalType": "uint256",
          "name": "supply",
          "type": "uint256"
        },
        {
          "internalType": "uint256",
          "name": "presale",
          "type": "uint256"
        },
        {
          "internalType": "uint256",
          "name": "onSale",
          "type": "uint256"
        },
        {
          "internalType": "uint8",
          "name": "chain",
          "type": "uint8"
        },
        {
          "internalType": "bool",
          "name": "approved",
          "type": "bool"
        }
      ],
      "stateMutability": "view",
      "type": "function"
    },
    {
      "inputs": [],
      "name": "owner",
      "outputs": [
        {
          "internalType": "address",
          "name": "",
          "type": "address"
        }
      ],
      "stateMutability": "view",
      "type": "function"
    },
    {
      "inputs": [],
      "name": "getDrops",
      "outputs": [
        {
          "components": [
            {
              "internalType": "string",
              "name": "name",
              "type": "string"
            },
            {
              "internalType": "string",
              "name": "imageUri",
              "type": "string"
            },
            {
              "internalType": "string",
              "name": "description",
              "type": "string"
            },
            {
              "internalType": "string",
              "name": "socialHandle",
              "type": "string"
            },
            {
              "internalType": "string",
              "name": "websiteUri",
              "type": "string"
            },
            {
              "internalType": "string",
              "name": "price",
              "type": "string"
            },
            {
              "internalType": "uint256",
              "name": "supply",
              "type": "uint256"
            },
            {
              "internalType": "uint256",
              "name": "presale",
              "type": "uint256"
            },
            {
              "internalType": "uint256",
              "name": "onSale",
              "type": "uint256"
            },
            {
              "internalType": "uint8",
              "name": "chain",
              "type": "uint8"
            },
            {
              "internalType": "bool",
              "name": "approved",
              "type": "bool"
            }
          ],
          "internalType": "struct DropHunter.DropInfo[]",
          "name": "",
          "type": "tuple[]"
        }
      ],
      "stateMutability": "view",
      "type": "function"
    },
    {
      "inputs": [
        {
          "components": [
            {
              "internalType": "string",
              "name": "name",
              "type": "string"
            },
            {
              "internalType": "string",
              "name": "imageUri",
              "type": "string"
            },
            {
              "internalType": "string",
              "name": "description",
              "type": "string"
            },
            {
              "internalType": "string",
              "name": "socialHandle",
              "type": "string"
            },
            {
              "internalType": "string",
              "name": "websiteUri",
              "type": "string"
            },
            {
              "internalType": "string",
              "name": "price",
              "type": "string"
            },
            {
              "internalType": "uint256",
              "name": "supply",
              "type": "uint256"
            },
            {
              "internalType": "uint256",
              "name": "presale",
              "type": "uint256"
            },
            {
              "internalType": "uint256",
              "name": "onSale",
              "type": "uint256"
            },
            {
              "internalType": "uint8",
              "name": "chain",
              "type": "uint8"
            },
            {
              "internalType": "bool",
              "name": "approved",
              "type": "bool"
            }
          ],
          "internalType": "struct DropHunter.DropInfo",
          "name": "_dropInfo",
          "type": "tuple"
        }
      ],
      "name": "addDrop",
      "outputs": [],
      "stateMutability": "nonpayable",
      "type": "function"
    },
    {
      "inputs": [
        {
          "internalType": "uint256",
          "name": "_index",
          "type": "uint256"
        },
        {
          "components": [
            {
              "internalType": "string",
              "name": "name",
              "type": "string"
            },
            {
              "internalType": "string",
              "name": "imageUri",
              "type": "string"
            },
            {
              "internalType": "string",
              "name": "description",
              "type": "string"
            },
            {
              "internalType": "string",
              "name": "socialHandle",
              "type": "string"
            },
            {
              "internalType": "string",
              "name": "websiteUri",
              "type": "string"
            },
            {
              "internalType": "string",
              "name": "price",
              "type": "string"
            },
            {
              "internalType": "uint256",
              "name": "supply",
              "type": "uint256"
            },
            {
              "internalType": "uint256",
              "name": "presale",
              "type": "uint256"
            },
            {
              "internalType": "uint256",
              "name": "onSale",
              "type": "uint256"
            },
            {
              "internalType": "uint8",
              "name": "chain",
              "type": "uint8"
            },
            {
              "internalType": "bool",
              "name": "approved",
              "type": "bool"
            }
          ],
          "internalType": "struct DropHunter.DropInfo",
          "name": "_dropInfo",
          "type": "tuple"
        }
      ],
      "name": "updateDrop",
      "outputs": [],
      "stateMutability": "nonpayable",
      "type": "function"
    },
    {
      "inputs": [
        {
          "internalType": "uint256",
          "name": "_index",
          "type": "uint256"
        }
      ],
      "name": "approveDrop",
      "outputs": [],
      "stateMutability": "nonpayable",
      "type": "function"
    }
  ],
  "bytecode": "0x608060405234801561001057600080fd5b503373ffffffffffffffffffffffffffffffffffffffff1660008054906101000a90505050611963806100446000396000f3fe608060405234801561001057600080fd5b506004361061007d5760003560e01c80638691afb51161005b5780638691afb5146101085780638da5cb5b1461012657806396f4d2e314610144578063ab13c034146101605761007d565b8063042e82a3146100825780635eb39968146100b25780638272d6d4146100ec575b600080fd5b61009c6004803603810190610097919061119b565b61017c565b6040516100a99190611534565b60405180910390f35b6100cc60048036038101906100c7919061119b565b6101af565b6040516100e39b9a99989796959493929190611571565b60405180910390f35b6101066004803603810190610101919061119b565b610563565b005b61011061065e565b60405161011d919061154f565b60405180910390f35b61012e610a80565b60405161013b9190611534565b60405180910390f35b61015e6004803603810190610159919061115a565b610aa4565b005b61017a600480360381019061017591906111c4565b610c65565b005b60026020528060005260406000206000915054906101000a900473ffffffffffffffffffffffffffffffffffffffff1681565b600181815481106101bf57600080fd5b90600052602060002090600a02016000915090508060000180546101e290611818565b80601f016020809104026020016040519081016040528092919081815260200182805461020e90611818565b801561025b5780601f106102305761010080835404028352916020019161025b565b820191906000526020600020905b81548152906001019060200180831161023e57829003601f168201915b50505050509080600101805461027090611818565b80601f016020809104026020016040519081016040528092919081815260200182805461029c90611818565b80156102e95780601f106102be576101008083540402835291602001916102e9565b820191906000526020600020905b8154815290600101906020018083116102cc57829003601f168201915b5050505050908060020180546102fe90611818565b80601f016020809104026020016040519081016040528092919081815260200182805461032a90611818565b80156103775780601f1061034c57610100808354040283529160200191610377565b820191906000526020600020905b81548152906001019060200180831161035a57829003601f168201915b50505050509080600301805461038c90611818565b80601f01602080910402602001604051908101604052809291908181526020018280546103b890611818565b80156104055780601f106103da57610100808354040283529160200191610405565b820191906000526020600020905b8154815290600101906020018083116103e857829003601f168201915b50505050509080600401805461041a90611818565b80601f016020809104026020016040519081016040528092919081815260200182805461044690611818565b80156104935780601f1061046857610100808354040283529160200191610493565b820191906000526020600020905b81548152906001019060200180831161047657829003601f168201915b5050505050908060050180546104a890611818565b80601f01602080910402602001604051908101604052809291908181526020018280546104d490611818565b80156105215780601f106104f657610100808354040283529160200191610521565b820191906000526020600020905b81548152906001019060200180831161050457829003601f168201915b5050505050908060060154908060070154908060080154908060090160009054906101000a900460ff16908060090160019054906101000a900460ff1690508b565b60008054906101000a900473ffffffffffffffffffffffffffffffffffffffff1673ffffffffffffffffffffffffffffffffffffffff163373ffffffffffffffffffffffffffffffffffffffff16146105f1576040517f08c379a00000000000000000000000000000000000000000000000000000000081526004016105e890611646565b60405180910390fd5b60006001828154811061062d577f4e487b7100000000000000000000000000000000000000000000000000000000600052603260045260246000fd5b90600052602060002090600a0201905060018160090160016101000a81548160ff0219169083151502179055505050565b60606001805480602002602001604051908101604052809291908181526020016000905b82821015610a7757838290600052602060002090600a0201604051806101600160405290816000820180546106b690611818565b80601f01602080910402602001604051908101604052809291908181526020018280546106e290611818565b801561072f5780601f106107045761010080835404028352916020019161072f565b820191906000526020600020905b81548152906001019060200180831161071257829003601f168201915b5050505050815260200160018201805461074890611818565b80601f016020809104026020016040519081016040528092919081815260200182805461077490611818565b80156107c15780601f10610796576101008083540402835291602001916107c1565b820191906000526020600020905b8154815290600101906020018083116107a457829003601f168201915b505050505081526020016002820180546107da90611818565b80601f016020809104026020016040519081016040528092919081815260200182805461080690611818565b80156108535780601f1061082857610100808354040283529160200191610853565b820191906000526020600020905b81548152906001019060200180831161083657829003601f168201915b5050505050815260200160038201805461086c90611818565b80601f016020809104026020016040519081016040528092919081815260200182805461089890611818565b80156108e55780601f106108ba576101008083540402835291602001916108e5565b820191906000526020600020905b8154815290600101906020018083116108c857829003601f168201915b505050505081526020016004820180546108fe90611818565b80601f016020809104026020016040519081016040528092919081815260200182805461092a90611818565b80156109775780601f1061094c57610100808354040283529160200191610977565b820191906000526020600020905b81548152906001019060200180831161095a57829003601f168201915b5050505050815260200160058201805461099090611818565b80601f01602080910402602001604051908101604052809291908181526020018280546109bc90611818565b8015610a095780601f106109de57610100808354040283529160200191610a09565b820191906000526020600020905b8154815290600101906020018083116109ec57829003601f168201915b505050505081526020016006820154815260200160078201548152602001600882015481526020016009820160009054906101000a900460ff1660ff1660ff1681526020016009820160019054906101000a900460ff16151515158152505081526020019060010190610682565b50505050905090565b60008054906101000a900473ffffffffffffffffffffffffffffffffffffffff1681565b600081905060008161014001901515908115158152505060018190806001815401808255809150506001900390600052602060002090600a02016000909190919091506000820151816000019080519060200190610b03929190610e78565b506020820151816001019080519060200190610b20929190610e78565b506040820151816002019080519060200190610b3d929190610e78565b506060820151816003019080519060200190610b5a929190610e78565b506080820151816004019080519060200190610b77929190610e78565b5060a0820151816005019080519060200190610b94929190610e78565b5060c0820151816006015560e0820151816007015561010082015181600801556101208201518160090160006101000a81548160ff021916908360ff1602179055506101408201518160090160016101000a81548160ff0219169083151502179055505050600060018080549050610c0c919061174d565b9050336002600083815260200190815260200160002060006101000a81548173ffffffffffffffffffffffffffffffffffffffff021916908373ffffffffffffffffffffffffffffffffffffffff160217905550505050565b6002600083815260200190815260200160002060009054906101000a900473ffffffffffffffffffffffffffffffffffffffff1673ffffffffffffffffffffffffffffffffffffffff163373ffffffffffffffffffffffffffffffffffffffff1614610d06576040517f08c379a0000000000000000000000000000000000000000000000000000000008152600401610cfd90611666565b60405180910390fd5b6000816101400190151590811515815250508060018381548110610d53577f4e487b7100000000000000000000000000000000000000000000000000000000600052603260045260246000fd5b90600052602060002090600a02016000820151816000019080519060200190610d7d929190610e78565b506020820151816001019080519060200190610d9a929190610e78565b506040820151816002019080519060200190610db7929190610e78565b506060820151816003019080519060200190610dd4929190610e78565b506080820151816004019080519060200190610df1929190610e78565b5060a0820151816005019080519060200190610e0e929190610e78565b5060c0820151816006015560e0820151816007015561010082015181600801556101208201518160090160006101000a81548160ff021916908360ff1602179055506101408201518160090160016101000a81548160ff0219169083151502179055509050505050565b828054610e8490611818565b90600052602060002090601f016020900481019282610ea65760008555610eed565b82601f10610ebf57805160ff1916838001178555610eed565b82800160010185558215610eed579182015b82811115610eec578251825591602001919060010190610ed1565b5b509050610efa9190610efe565b5090565b5b80821115610f17576000816000905550600101610eff565b5090565b6000610f2e610f29846116b7565b611686565b905082815260208101848484011115610f4657600080fd5b610f518482856117d6565b509392505050565b600081359050610f68816118e8565b92915050565b600082601f830112610f7f57600080fd5b8135610f8f848260208601610f1b565b91505092915050565b60006101608284031215610fab57600080fd5b610fb6610160611686565b9050600082013567ffffffffffffffff811115610fd257600080fd5b610fde84828501610f6e565b600083015250602082013567ffffffffffffffff811115610ffe57600080fd5b61100a84828501610f6e565b602083015250604082013567ffffffffffffffff81111561102a57600080fd5b61103684828501610f6e565b604083015250606082013567ffffffffffffffff81111561105657600080fd5b61106284828501610f6e565b606083015250608082013567ffffffffffffffff81111561108257600080fd5b61108e84828501610f6e565b60808301525060a082013567ffffffffffffffff8111156110ae57600080fd5b6110ba84828501610f6e565b60a08301525060c06110ce84828501611130565b60c08301525060e06110e284828501611130565b60e0830152506101006110f784828501611130565b6101008301525061012061110d84828501611145565b6101208301525061014061112384828501610f59565b6101408301525092915050565b60008135905061113f816118ff565b92915050565b60008135905061115481611916565b92915050565b60006020828403121561116c57600080fd5b600082013567ffffffffffffffff81111561118657600080fd5b61119284828501610f98565b91505092915050565b6000602082840312156111ad57600080fd5b60006111bb84828501611130565b91505092915050565b600080604083850312156111d757600080fd5b60006111e585828601611130565b925050602083013567ffffffffffffffff81111561120257600080fd5b61120e85828601610f98565b9150509250929050565b600061122483836113e6565b905092915050565b61123581611781565b82525050565b6000611246826116f7565b611250818561171a565b935083602082028501611262856116e7565b8060005b8581101561129e578484038952815161127f8582611218565b945061128a8361170d565b925060208a01995050600181019050611266565b50829750879550505050505092915050565b6112b981611793565b82525050565b6112c881611793565b82525050565b60006112d982611702565b6112e3818561172b565b93506112f38185602086016117e5565b6112fc816118d7565b840191505092915050565b600061131282611702565b61131c818561173c565b935061132c8185602086016117e5565b611335816118d7565b840191505092915050565b600061134d60168361173c565b91507f596f7520617265206e6f7420746865206f776e657221000000000000000000006000830152602082019050919050565b600061138d60248361173c565b91507f596f7520617265206e6f7420746865206f776e6572206f66207468697320647260008301527f6f702e20000000000000000000000000000000000000000000000000000000006020830152604082019050919050565b600061016083016000830151848203600086015261140482826112ce565b9150506020830151848203602086015261141e82826112ce565b9150506040830151848203604086015261143882826112ce565b9150506060830151848203606086015261145282826112ce565b9150506080830151848203608086015261146c82826112ce565b91505060a083015184820360a086015261148682826112ce565b91505060c083015161149b60c08601826114f8565b5060e08301516114ae60e08601826114f8565b506101008301516114c36101008601826114f8565b506101208301516114d8610120860182611516565b506101408301516114ed6101408601826112b0565b508091505092915050565b611501816117bf565b82525050565b611510816117bf565b82525050565b61151f816117c9565b82525050565b61152e816117c9565b82525050565b6000602082019050611549600083018461122c565b92915050565b60006020820190508181036000830152611569818461123b565b905092915050565b600061016082019050818103600083015261158c818e611307565b905081810360208301526115a0818d611307565b905081810360408301526115b4818c611307565b905081810360608301526115c8818b611307565b905081810360808301526115dc818a611307565b905081810360a08301526115f08189611307565b90506115ff60c0830188611507565b61160c60e0830187611507565b61161a610100830186611507565b611628610120830185611525565b6116366101408301846112bf565b9c9b505050505050505050505050565b6000602082019050818103600083015261165f81611340565b9050919050565b6000602082019050818103600083015261167f81611380565b9050919050565b6000604051905081810181811067ffffffffffffffff821117156116ad576116ac6118a8565b5b8060405250919050565b600067ffffffffffffffff8211156116d2576116d16118a8565b5b601f19601f8301169050602081019050919050565b6000819050602082019050919050565b600081519050919050565b600081519050919050565b6000602082019050919050565b600082825260208201905092915050565b600082825260208201905092915050565b600082825260208201905092915050565b6000611758826117bf565b9150611763836117bf565b9250828210156117765761177561184a565b5b828203905092915050565b600061178c8261179f565b9050919050565b60008115159050919050565b600073ffffffffffffffffffffffffffffffffffffffff82169050919050565b6000819050919050565b600060ff82169050919050565b82818337600083830152505050565b60005b838110156118035780820151818401526020810190506117e8565b83811115611812576000848401525b50505050565b6000600282049050600182168061183057607f821691505b6020821081141561184457611843611879565b5b50919050565b7f4e487b7100000000000000000000000000000000000000000000000000000000600052601160045260246000fd5b7f4e487b7100000000000000000000000000000000000000000000000000000000600052602260045260246000fd5b7f4e487b7100000000000000000000000000000000000000000000000000000000600052604160045260246000fd5b6000601f19601f8301169050919050565b6118f181611793565b81146118fc57600080fd5b50565b611908816117bf565b811461191357600080fd5b50565b61191f816117c9565b811461192a57600080fd5b5056fea26469706673582212200e75499ac4bd34907c7eda5f0fa19033e799f10f226854291fffd13bcb60eed664736f6c63430008000033",
  "immutableReferences": {},
  "source": "// SPDX-License-Identifier: MIT\n\npragma solidity ^0.8.0;\n\ncontract DropHunter {\n    // Define a NFT project\n    address public owner;\n    \n    struct DropInfo {\n        string name;\n        string imageUri;\n        string description;\n        string socialHandle;\n        string websiteUri;\n        string price;\n        uint256 supply;\n        uint256 presale;\n        uint256 onSale;\n        uint8 chain;\n        bool approved;\n    }\n\n    constructor() {\n        owner == msg.sender;\n    }\n\n    modifier onlyOwner{\n       require(msg.sender == owner, \"You are not the owner!\");\n       _; \n    }\n    // Create a list to hold all the objects\n    DropInfo[] public drops;\n    mapping (uint256 => address) public dropOwners;\n\n    // Get the NFT drop objects list\n    function getDrops() public view returns (DropInfo[] memory) {\n        return drops;\n    }\n\n\n    // Add to the NFT drop objects list\n    function addDrop(DropInfo memory _dropInfo) public {\n        DropInfo memory newDrop = _dropInfo;\n        newDrop.approved = false;\n        drops.push(newDrop);\n        uint256 id = drops.length - 1;\n        dropOwners[id] = msg.sender;\n    }\n\n    // Update drop objects list\n    function updateDrop(uint256 _index, DropInfo memory _dropInfo) public {\n        require(msg.sender == dropOwners[_index], \"You are not the owner of this drop. \");\n        _dropInfo.approved = false;\n        drops[_index] = _dropInfo;\n        \n    }\n\n\n    // Remove from the NFT drop objects list\n    // Approve an NFT drop object to enable displaying\n    function approveDrop(uint256 _index) public onlyOwner {\n        DropInfo storage drop = drops[_index];\n        drop.approved = true;\n        \n    }\n \n}",
  "sourcePath": "/Users/scottpayne/Desktop/DEV/NFT_Drop/contracts/nftDrop.sol",
  "compiler": {
    "name": "solc",
    "version": "0.8.0+commit.c7dfd78e.Emscripten.clang"
  },
  "schemaVersion": "3.2.3",
  "updatedAt": "2021-12-09T17:03:44.888Z",
  "devdoc": {
    "kind": "dev",
    "methods": {},
    "version": 1
  },
  "userdoc": {
    "kind": "user",
    "methods": {},
    "version": 1
  }
}